:1000000002308A006B2A00000B138B138B1B052810
:100010000B16831601130614C03083128B048A1149
:100020000A12CD2A8316871107168712831294129B
:10003000AE122E088316870083122E162E08831602
:1000400087008312AE112E0883168700203083129A
:100050009400C0308316940083128A110A12CE2AAB
:10006000831687100614071183122E112E0883168B
:10007000870083120711AE102E08831687008312A3
:1000800087101308303093008316140C031C452886
:1000900083121308FF3093008316140C031C4D28A1
:1000A00083121308C23093008316140C031C5528C6
:1000B00083121308C23093008316140C031C5D28AE
:1000C00083121308C23093008316140C031C652896
:1000D00083121308C23093008316140C031C6D287E
:1000E0008312AE102E088316870083128714AE1079
:1000F0002E08831687008312871013082A30930076
:100100008316140C031C812883121308FF309300FC
:100110008316140C031C892883121308C230930021
:100120008316140C031C912883121308C230930009
:100130008316140C031C992883121308C2309300F1
:100140008316140C031CA12883121308C2309300D9
:100150008316140C031CA9288312AE102E088316D4
:10016000870083128714AE102E088316870083122F
:10017000871013082B3093008316140C031CBD2822
:100180008312310893008316140C031CC4288312B5
:100190001308C23093008316140C031CCC2883125E
:1001A0001308C23093008316140C031CD428831246
:1001B0001308C23093008316140C031CDC2883122E
:1001C0001308C23093008316140C031CE428831216
:1001D000AE102E088316870083128714AE102E08E7
:1001E000831687008312871013082C309300831620
:1001F000140C031CF8288312130893018316140CA3
:10020000031CFF288312AE102E088316870083126A
:100210008714AE102E0883168700831287101308E8
:10022000213093008316140C031C13298312130826
:10023000073093008316140C031C1B298312AE1085
:100240002E088316870083128714AE102E0883169B
:100250008700831287101308223093008316140C32
:10026000031C2F2983121308073093008316140CE4
:10027000031C37298312AE102E08831687008312C1
:100280008714AE102E088316870083128710130878
:10029000233093008316140C031C4B29831213087C
:1002A000033093008316140C031C53298312AE10E1
:1002B0002E088316870083128714AE102E0883162B
:1002C0008700831287101308243093008316140CC0
:1002D000031C6729831213080A3093008316140C39
:1002E000031C6F298312AE102E0883168700831219
:1002F0008714AE102E088316870083128710130808
:10030000253093008316140C031C832983123008B4
:1003100093008316140C031C8A298312AE102E0836
:100320008316870083128714AE102E088316870069
:10033000831287101308263093008316140C031CB5
:100340009E2983121308073093008316140C031C94
:10035000A6298312AE102E088316870083128714F5
:10036000AE102E08831687008312871013082730DB
:1003700093008316140C031CBA29831213087030DF
:1003800093008316140C031CC2298312AE102E088E
:100390008316870083128714AE102E0883168700F9
:1003A000831287101308313093008316140C031C3A
:1003B000D62983121308013093008316140C031CF2
:1003C000DE298312AE102E0883168700831287144D
:1003D000AE102E0883168700831287101308323060
:1003E00093008316140C031CF229831213080A309D
:1003F00093008316140C031CFA298312AE102E08E6
:100400008316870083128714AE102E088316870088
:10041000831287101308333093008316140C031CC7
:100420000E2A831213080A3093008316140C031C3F
:10043000162A8312AE102E088316870083128714A3
:100440008A110A12D32A303084008313000803195A
:10045000372A0130F800F701F70B2C2AF80B2B2A6A
:100460004A30F700F70B322A352A800B292A080078
:100470002E112E088316870083120711AE102E0846
:100480008316870083128710130820309300831689
:10049000140C031C482A831213080F309300831690
:1004A000140C031C502A8312AE102E0883168700EA
:1004B000831287140230B00023222E112E088316D7
:1004C0008700831207153130F700F70B652A682A79
:1004D0008A110A12D42A03081F398300A010A3012D
:1004E000A401FF30AE00C830AF0083161F149F1464
:1004F0001F159F1107309C00831383122010A10148
:10050000A201A501A601A701A801A901AA01AB01A9
:10051000AC01AD01831681171F149F141F159F1185
:100520001F1383121F139F1383169F1383121F140D
:100530009412AE122E088316870083122E162E08F0
:10054000831687008312AE112E08831687000130B0
:10055000831294000030831694000108C7390838CC
:100560008100831290010030F80092000030831661
:10057000920007309C00050885000230F700F70B59
:10058000BF2AC22A00001C0883120D1383169D0186
:100590000030850083128501042812284030B00005
:1005A0000830B1003028382A831688108312881446
:1005B0002F08B000232283168810831288102F087A
:1005C000B000232283168810831288142F08B000ED
:1005D000232283168810831288102F08B00023224C
:1005E00083168810831288142F08B00023228316E4
:0A05F000881083128810FB2A6300B4
:02400E00313F40
:00000001FF
;PIC16F877A
;CRC=98E0  CREATED="30-ene.-21 17:37"
