:1000000000308A001928000026308400831300087D
:10001000031918280130F800F701F70B0D28F80B29
:100020000C284A30F700F70B13281628800B0A28F3
:100030000800840183131F308305FF30A000963031
:10004000A10083161F149F141F159F1107309C00D9
:100050001F109F101F119F111F1383121F179F172F
:1000600083169F1783121F14201120088316870000
:10007000831207110C3097000030F8000538920009
:10008000FF30831692008312A01020088316870089
:10009000831287100C309D000030F8000538920064
:1000A000FF30831692000610831206142108A60062
:1000B000042083160610831206102108A6000420CF
:1000C00083160610831206142108A6000420831646
:1000D0000610831206102108A600042083160610BD
:1000E000831206142108A60004208316061083122A
:1000F00006101030F8001F08C73978049F0006303A
:10010000F700F70B812800001F151F19852883169B
:100110001E088312A4001E08A5002508F900240863
:10012000F800F90CF80CF90CF80CF90C78089B00A5
:10013000F90C790C3039F7001D08CF3977049D0090
:100140002508F9002408F800F90CF80CF90CF80C53
:10015000F90C78089500F90C790C3039F70017087C
:10016000CF39770497000630F700F70BB528000069
:040170007928630087
:02400E00713F00
:00000001FF
;PIC16F877A
;CRC=6C00  CREATED="03-ene.-21 20:53"
