:1000000004308A00712C00000B138B138B1B052806
:100010000B16831601130614C03083128B048A1149
:100020000A12A22C831687110716871283129412C4
:10003000AE122E088316870083122E162E08831602
:1000400087008312AE112E0883168700203083129A
:100050009400C0308316940083128A110A12A32CD4
:10006000831687100614071183122E112E0883168B
:10007000870083120711AE102E08831687008312A3
:1000800087101308303093008316140C031C452886
:1000900083121308FF3093008316140C031C4D28A1
:1000A00083121308C23093008316140C031C5528C6
:1000B00083121308C23093008316140C031C5D28AE
:1000C00083121308C23093008316140C031C652896
:1000D00083121308C23093008316140C031C6D287E
:1000E0008312AE102E088316870083128714AE1079
:1000F0002E08831687008312871013082A30930076
:100100008316140C031C812883121308FF309300FC
:100110008316140C031C892883121308C230930021
:100120008316140C031C912883121308C230930009
:100130008316140C031C992883121308C2309300F1
:100140008316140C031CA12883121308C2309300D9
:100150008316140C031CA9288312AE102E088316D4
:10016000870083128714AE102E088316870083122F
:10017000871013082B3093008316140C031CBD2822
:100180008312320893008316140C031CC4288312B4
:100190001308C23093008316140C031CCC2883125E
:1001A0001308C23093008316140C031CD428831246
:1001B0001308C23093008316140C031CDC2883122E
:1001C0001308C23093008316140C031CE428831216
:1001D000AE102E088316870083128714AE102E08E7
:1001E000831687008312871013082C309300831620
:1001F000140C031CF8288312130893018316140CA3
:10020000031CFF288312AE102E088316870083126A
:100210008714AE102E0883168700831287101308E8
:10022000213093008316140C031C13298312130826
:10023000073093008316140C031C1B298312AE1085
:100240002E088316870083128714AE102E0883169B
:100250008700831287101308223093008316140C32
:10026000031C2F2983121308073093008316140CE4
:10027000031C37298312AE102E08831687008312C1
:100280008714AE102E088316870083128710130878
:10029000233093008316140C031C4B29831213087C
:1002A000033093008316140C031C53298312AE10E1
:1002B0002E088316870083128714AE102E0883162B
:1002C0008700831287101308243093008316140CC0
:1002D000031C6729831213080A3093008316140C39
:1002E000031C6F298312AE102E0883168700831219
:1002F0008714AE102E088316870083128710130808
:10030000253093008316140C031C832983123108B3
:1003100093008316140C031C8A298312AE102E0836
:100320008316870083128714AE102E088316870069
:10033000831287101308263093008316140C031CB5
:100340009E2983121308073093008316140C031C94
:10035000A6298312AE102E088316870083128714F5
:10036000AE102E08831687008312871013082730DB
:1003700093008316140C031CBA29831213087030DF
:1003800093008316140C031CC2298312AE102E088E
:100390008316870083128714AE102E0883168700F9
:1003A000831287101308313093008316140C031C3A
:1003B000D62983121308013093008316140C031CF2
:1003C000DE298312AE102E0883168700831287144D
:1003D000AE102E0883168700831287101308323060
:1003E00093008316140C031CF229831213080A309D
:1003F00093008316140C031CFA298312AE102E08E6
:100400008316870083128714AE102E088316870088
:10041000831287101308333093008316140C031CC7
:100420000E2A831213080A3093008316140C031C3F
:10043000162A8312AE102E088316870083128714A3
:100440008A110A12A82C3130840083130008031982
:10045000372A0130F800F701F70B2C2AF80B2B2A6A
:100460004A30F700F70B322A352A800B292A080078
:100470002E112E088316870083120711AE102E0846
:100480008316870083128710130820309300831689
:10049000140C031C482A831213080F309300831690
:1004A000140C031C502A8312AE102E0883168700EA
:1004B000831287140230B10023222E112E088316D6
:1004C0008700831207153130F700F70B652A682A79
:1004D0008A110A12A92C8B1F6F2A2014702A20104F
:1004E0000B138B138B1B712A2E112E08831687007A
:1004F00083120711AE102E0883168700831287100F
:100500001308273093008316140C031C842A8312CB
:100510001308703093008316140C031C8C2A83126A
:10052000AE102E088316870083128714AE102E0893
:1005300083168700831287101308223093008316D6
:10054000140C031CA02A8312130801309300831695
:10055000140C031CA82A8312AE102E0883168700E1
:1005600083128714AE102E0883168700831287101B
:100570001308303093008316140C031CBC2A83121A
:100580002D0893008316140C031CC32A831213082E
:10059000C23093008316140C031CCB2A8312130859
:1005A000C23093008316140C031CD32A8312130841
:1005B000C23093008316140C031CDB2A8312130829
:1005C000C23093008316140C031CE32A8312AE106E
:1005D0002E088316870083128714AE102E08831608
:1005E00087008312871013082A3093008316140C97
:1005F000031CF72A83122D0893008316140C031C86
:10060000FE2A83121308C23093008316140C031CB5
:10061000062B83121308C23093008316140C031C9C
:100620000E2B83121308C23093008316140C031C84
:10063000162B83121308C23093008316140C031C6C
:100640001E2B8312AE102E08831687008312871488
:10065000AE102E08831687008312871013080B3004
:1006600093008316140C031C322B8312130893017E
:100670008316140C031C392B83121308AD001308C6
:1006800093018316140C031C422B8312130893014D
:100690008316140C031C492B831213089301831631
:1006A000140C031C502B8312130893018316140C93
:1006B000031C572B8312AE102E088316870083125B
:1006C0008714AE102E088316870083128710130834
:1006D000A03093008316140C031C6B2B8312A30A07
:1006E000230893008316140C031C732B83122D080C
:1006F00093008316140C031C7A2B8312B10131086A
:10070000073C031C922B253031078400831300081B
:10071000B300330893008316140C031C8C2B831234
:10072000B10A7F2BAE102E08831687008312871420
:10073000AE102E088316870083128710130820300E
:1007400093008316140C031CA22B831213080E3083
:1007500093008316140C031CAA2B8312AE102E08D0
:1007600083168700831287142E112E0883168700A4
:10077000831207150430F700F70BBC2BBF2B2E118B
:100780002E088316870083120711A201A101831688
:1007900006148312061CD72BA10A0319A20A2108EA
:1007A000F43C031DD62B220BD62BD72BC72BAE1018
:1007B0002E088316870083128710130827309300B2
:1007C0008316140C031CE12B83121308B2001308C8
:1007D000703093008316140C031CEB2B8312AE10A5
:1007E0002E088316870083128714AE102E088316F6
:1007F0008700831287101308223093008316140C8D
:10080000031CFF2B83121308073093008316140C6C
:10081000031C072C8312AE102E0883168700831248
:100820008714AE102E0883168700831287101308D2
:10083000E13093008316140C031C1B2C8312AE10A2
:100840002E088316870083128714AE102E08831695
:100850008700831287101308203093008316140C2E
:10086000031C2F2C831213080F3093008316140CD3
:10087000031C372C8312AE102E08831687008312B8
:1008800087142E112E088316870083120715313026
:10089000F700F70B492C4C2C2108F43C031D5A2C73
:1008A000220B5A2C201C562CC0308B048B1002308B
:1008B000F8006E2C321A672CB21E672C201C622C9A
:1008C000C0308B048B100030F8006E2C6E2C201C76
:1008D0006B2CC0308B048B100130F8008A110A1287
:1008E000F62C03081F398300A010A301A401FF30D8
:1008F000AE00C830AF0083161F149F141F159F1140
:1009000007309C00831383122010A101A201A501CE
:10091000A601A701A801A901AA01AB01AC01AD0183
:1009200083161F109F101F119F151F149F101F115A
:100930009F151F1383121F179F1783169F13831270
:100940001F14042812284030B1000630B2003028AD
:10095000382A0530B10023223F30831685008810E5
:10096000831288142F08B100232283168810831263
:1009700088102F08B1002322831688108312881450
:100980002F08B100232283168810831288102F08A5
:10099000B100232283168810831288142F08B10017
:1009A000232283168810831288100508A50028309A
:1009B000F8001F08C73978049F001F151F19DE2C87
:1009C0001E08A600E32CE42C00003030F8001F08BD
:1009D000C73978049F001F151F19EC2C1E08A700AB
:1009E000F12CF22C00000830AD006B2A7808B00022
:0E09F000B0080319FD2C300BFD2CD52C630034
:02400E00313F40
:00000001FF
;PIC16F877A
;CRC=D0B7  CREATED="30-ene.-21 16:44"
